:100000000C945D000C9485000C9485000C94850084
:100010000C9485000C9485000C9485000C9485004C
:100020000C9485000C9485000C9485000C9485003C
:100030000C9485000C9485000C9485000C9485002C
:100040000C9458030C9485000C9426030C94000324
:100050000C9485000C9485000C9485000C9485000C
:100060000C9485000C9485000000000024002700FB
:100070002A0000000000250028002B0004040404CE
:100080000404040402020202020203030303030342
:10009000010204081020408001020408102001021F
:1000A00004081020000000080002010000030407FB
:1000B0000000000000000000AB0511241FBECFEFC0
:1000C000D8E0DEBFCDBF21E0A8E2B1E001C01D92C3
:1000D000A43DB207E1F711E0A0E0B1E0E0E1F5E115
:1000E00002C005900D92A832B107D9F710E0CDE516
:1000F000D0E004C02197FE010E947408CC35D107DE
:10010000C9F70E94A2030C94860A0C9400002FB732
:10011000F89480912F0190913001A0913101B0911C
:1001200032012FBF80933B0190933C01A0933D018E
:10013000B0933E01E0913301F09134010284F385E4
:10014000E02D83E391E0099597FF26C02FB7F8943F
:1001500080912F0190913001A0913101B091320135
:100160002FBF40913B0150913C0160913D01709146
:100170003E01841B950BA60BB70B409137015091A4
:1001800038016091390170913A0184179507A607EB
:10019000B70780F28FEF9FEF0895CF92DF92EF9233
:1001A000FF920F931F93CF93DF936C017A018B0122
:1001B000C0E0D0E0CE15DF0589F0D8016D918D014A
:1001C000D601ED91FC910190F081E02DC6010995D9
:1001D000892B11F47E0102C02196ECCFC701DF917B
:1001E000CF911F910F91FF90EF90DF90CF900895E6
:1001F000089580E090E00895FC01538D448D252FF3
:1002000030E0842F90E0821B930B541710F0CF96B0
:10021000089501970895FC01918D828D981761F0E2
:10022000828DDF01A80FB11D5D968C91928D9F5F2D
:100230009F73928F90E008958FEF9FEF0895FC01D8
:10024000918D828D981731F0828DE80FF11D858D8B
:1002500090E008958FEF9FEF0895FC01918D228D1E
:10026000892F90E0805C9F4F821B91098F739927A3
:10027000089583E391E00E942D0121E0892B09F488
:1002800020E0822F0895FC01848DDF01A80FB11DAD
:10029000A35ABF4F2C91848D90E001968F739927BC
:1002A000848FA689B7892C93A089B1898C918064A9
:1002B0008C93938D848D981306C00288F389E02D6A
:1002C00080818F7D80830895EF92FF920F931F931B
:1002D000CF93DF93EC0181E0888F9B8D8C8D9813F9
:1002E00005C0E889F989808185FD24C0F62E0B8D33
:1002F00010E00F5F1F4F0F731127E02E8C8DE81257
:100300000CC00FB607FCFACFE889F989808185FF18
:10031000F5CFCE010E944301F1CF8B8DFE01E80F96
:10032000F11DE35AFF4FF0820B8FEA89FB89808130
:10033000806207C0EE89FF896083E889F98980813E
:100340008064808381E090E0DF91CF911F910F91D5
:10035000FF90EF900895CF93DF93EC01888D882371
:10036000C9F0EA89FB89808185FD05C0A889B98922
:100370008C9186FD0FC00FB607FCF5CF808185FFFD
:10038000F2CFA889B9898C9185FFEDCFCE010E946B
:100390004301E7CFDF91CF91089580E090E0892B72
:1003A00029F00E94390181110C940000089590E019
:1003B000FC01EC55FF4F3491FC01E057FF4F2491B5
:1003C000FC01E458FF4FE491EE2309F43BC03323D2
:1003D00039F1333091F038F43130A9F0323001F591
:1003E00084B58F7D12C0373091F03830A1F03430B1
:1003F000B9F4809180008F7D03C0809180008F7759
:10040000809380000DC084B58F7784BD09C0809132
:10041000B0008F7703C08091B0008F7D8093B000D3
:10042000F0E0EE0FFF1FEE58FF4FA591B4918FB78C
:10043000F894EC91611103C020952E2301C02E2B5E
:100440002C938FBF0895CF93DF9390E0FC01E0578A
:10045000FF4F2491FC01E458FF4F8491882361F100
:1004600090E0880F991FFC01E859FF4FC591D49186
:10047000FC01EE58FF4FA591B491611109C09FB7DF
:10048000F8948881209582238883EC912E230BC0D9
:10049000623061F49FB7F8943881822F809583236E
:1004A0008883EC912E2B2C939FBF06C08FB7F894B6
:1004B000E8812E2B28838FBFDF91CF9108953FB71E
:1004C000F8948091290190912A01A0912B01B0917B
:1004D0002C0126B5A89B05C02F3F19F00196A11D40
:1004E000B11D3FBFBA2FA92F982F8827820F911DCA
:1004F000A11DB11DBC01CD0142E0660F771F881F11
:10050000991F4A95D1F70895009769F0FC01019071
:100510000020E9F73197AF01481B590BBC0183E379
:1005200091E00C94CD0080E090E008958F929F922E
:10053000AF92BF920F931F93CF93DF93CDB7DEB7E8
:10054000A1970FB6F894DEBF0FBECDBF19A24230FF
:1005500008F44AE08E010F5D1F4F842E912CA12CD0
:10056000B12CA50194010E945208E62FB901CA01DD
:1005700001501109EA3014F4E05D01C0E95CD801D2
:10058000EC93232B242B252B61F7C8010E948402B6
:10059000A1960FB6F894DEBF0FBECDBFDF91CF910D
:1005A0001F910F91BF90AF909F908F9008950E94E0
:1005B000710A0F931F93CF93DF93EC018881998188
:1005C000009729F02A813B812617370788F48B0191
:1005D0006F5F7F4F0E94A709009761F0998388831E
:1005E0001B830A832C813D81232B11F4FC01108293
:1005F00081E001C080E0DF91CF911F910F910895BC
:100600001F920F920FB60F9211242F933F934F9387
:100610005F936F937F938F939F93AF93BF93EF936A
:10062000FF9383E391E00E944301FF91EF91BF911B
:10063000AF919F918F917F916F915F914F913F917A
:100640002F910F900FBE0F901F9018951F920F9231
:100650000FB60F9211242F938F939F93EF93FF93D5
:10066000E0914301F09144018081E0914901F091D2
:100670004A0182FD12C0908180914C018F5F8F737F
:1006800020914D01821751F0E0914C01F0E0ED5CBA
:10069000FE4F958F80934C0101C08081FF91EF91B7
:1006A0009F918F912F910F900FBE0F901F901895D3
:1006B0001F920F920FB60F9211242F933F938F9397
:1006C0009F93AF93BF9380912F0190913001A091A0
:1006D0003101B09132013091280123E0230F2D37F1
:1006E00020F40196A11DB11D05C026E8230F029636
:1006F000A11DB11D2093280180932F0190933001FB
:10070000A0933101B09332018091290190912A0187
:10071000A0912B01B0912C010196A11DB11D8093D8
:10072000290190932A01A0932B01B0932C01BF9132
:10073000AF919F918F913F912F910F900FBE0F908E
:100740001F901895CF93DF93CDB7DEB728970FB6DC
:10075000F894DEBF0FBECDBF789484B5826084BDAF
:1007600084B5816084BD85B5826085BD85B58160B5
:1007700085BD80916E00816080936E001092810033
:1007800080918100826080938100809181008160EE
:1007900080938100809180008160809380008091AF
:1007A000B10084608093B1008091B000816080933B
:1007B000B00080917A00846080937A0080917A0002
:1007C000826080937A0080917A00816080937A00C1
:1007D00080917A00806880937A001092C100E09145
:1007E0004301F091440182E08083E0913F01F09168
:1007F00040011082E0914101F09142018FEC808331
:1008000010924B01E0914701F091480186E080830E
:10081000E0914501F0914601808180618083E09103
:100820004501F0914601808188608083E091450117
:10083000F0914601808180688083E0914501F091CC
:10084000460180818F7D808360E08FE00E942302DB
:1008500061E086E00E94230261E087E00E942302BB
:1008600011E410937C0080917A00806480937A0078
:1008700080917A0086FDFCCF6091780080917900AC
:1008800070E0782B70932E0160932D01072E000CE1
:10089000880B990B0E94DF0520E030E040E85AE326
:1008A0000E943E0620E030E44CE955E40E943E06FA
:1008B00020E030E040E251E40E94A0076B017C019F
:1008C0009B01AC010E944D08882319F088E191E05A
:1008D0001AC046015701E894B7F82FEF3FEF4FE7F2
:1008E0005FE7C501B4010E944D0881110FC02FEFD1
:1008F0003FEF4FE75FE7C501B4010E94D805181626
:100900002CF48CE191E00E94840282C02FEF3FEF33
:100910004FE75FE4C701B6010E94480818161CF4AF
:1009200080E291E0F0CF2FEF3FEF4FE75FECC701A0
:10093000B6010E94D80587FDF3CF20E030E0A90181
:10094000C701B6010E94D80587FF0FC0E0913301AF
:10095000F09134010190F081E02D6DE283E391E0AC
:100960000995C701B601905802C0C701B6012AE037
:1009700037ED43EA5BE30E9434072B013C010E9400
:1009800019084B015C010E94DD059B01AC01C3010C
:10099000B2010E9433072B013C014AE0C501B401BA
:1009A0000E949602E0913301F09134010190F081B0
:1009B000E02D6EE283E391E0099520E030E040E233
:1009C00051E4C301B2010E943E062B013C010E948A
:1009D00019084B01A12CB12C4AE0C501B4010E94B9
:1009E0009602C501B4010E94DD059B01AC01C30163
:1009F000B2010E94330720E030E040E251E40E945F
:100A00003E060E94190880E090E04AE00E949602AB
:100A100084E291E00E94840283E391E00E942D0130
:100A2000181619060CF055C0C701B6010E9412082D
:100A3000A62E1A8219821C821B821E821D8260E0F1
:100A400070E0CE0101960E94D90229813A8181117C
:100A50000DC02115310519F0C9010E940F091A8234
:100A600019821E821D821C821B8207C01E821D826B
:100A700066E271E0C9010E947F0A0E9487000A2C89
:100A8000000CBB0897FD21C08A159B05F1F08F83F0
:100A900018868D809E802FEF821A920AB401CE01B3
:100AA00001960E94D902882369F029813A818D81BB
:100AB0009E81BE01695F7F4F820F931F0E947F0A54
:100AC0009E828D820E948700DDCF89819A810E945B
:100AD0000F0926E636E646E152E4C701B6010E9458
:100AE0004808181634F460E086E00E94D70161E0FF
:100AF00005C061E086E00E94D70160E087E00E94C7
:100B0000D7010E945F024B015C0188EEC82E83E092
:100B1000D82EE12CF12C0E945F02DC01CB01881958
:100B20009909AA09BB09883E9340A105B10558F06F
:100B300081E0C81AD108E108F10828EE820E23E00E
:100B4000921EA11CB11CC114D104E104F10419F7D7
:100B50000E94CD0186CEE3E3F1E01382128288EE9B
:100B600093E0A0E0B0E084839583A683B7838AE016
:100B700091E09183808385EC90E09587848784EC75
:100B800090E09787868780EC90E0918B808B81EC5A
:100B900090E0938B828B82EC90E0958B848B86EC3B
:100BA00090E0978B868B118E128E138E148E089583
:100BB0000E941A0608F481E00895E89409C097FBA2
:100BC0003EF490958095709561957F4F8F4F9F4F24
:100BD0009923A9F0F92F96E9BB279395F695879568
:100BE00077956795B795F111F8CFFAF4BB0F11F42B
:100BF00060FF1BC06F5F7F4F8F4F9F4F16C08823D2
:100C000011F096E911C0772321F09EE8872F762F07
:100C100005C0662371F096E8862F70E060E02AF048
:100C20009A95660F771F881FDAF7880F9695879534
:100C300097F90895990F0008550FAA0BE0E8FEEF09
:100C400016161706E807F907C0F012161306E40790
:100C5000F50798F0621B730B840B950B39F40A2689
:100C600061F0232B242B252B21F408950A2609F467
:100C7000A140A6958FEF811D811D08950E94510608
:100C80000C94C2060E94B40638F00E94BB0620F005
:100C9000952311F00C94AB060C94B10611240C941E
:100CA000F6060E94D30670F3959FC1F3950F50E0AE
:100CB000551F629FF001729FBB27F00DB11D639F0E
:100CC000AA27F00DB11DAA1F649F6627B00DA11DB4
:100CD000661F829F2227B00DA11D621F739FB00D5A
:100CE000A11D621F839FA00D611D221F749F3327CA
:100CF000A00D611D231F849F600D211D822F762F63
:100D00006A2F11249F5750409AF0F1F088234AF03F
:100D1000EE0FFF1FBB1F661F771F881F91505040AB
:100D2000A9F79E3F510580F00C94AB060C94F60693
:100D30005F3FE4F3983ED4F3869577956795B79532
:100D4000F795E7959F5FC1F7FE2B880F911D96954C
:100D5000879597F9089597F99F6780E870E060E0BC
:100D600008959FEF80EC089500240A941616170644
:100D700018060906089500240A941216130614068C
:100D800005060895092E0394000C11F4882352F0EF
:100D9000BB0F40F4BF2B11F460FF04C06F5F7F4FA7
:100DA0008F4F9F4F089557FD9058440F551F59F08E
:100DB0005F3F71F04795880F97FB991F61F09F3F48
:100DC00079F087950895121613061406551FF2CF71
:100DD0004695F1DF08C0161617061806991FF1CFC1
:100DE00086957105610508940895E894BB276627E8
:100DF0007727CB0197F908952F923F924F925F92F8
:100E00006F927F928F929F92AF92BF92CF92DF921A
:100E1000EF92FF920F931F93CF93DF93CDB7DEB77F
:100E2000CA1BDB0B0FB6F894DEBF0FBECDBF099413
:100E30002A88398848885F846E847D848C849B846A
:100E4000AA84B984C884DF80EE80FD800C811B8178
:100E5000AA81B981CE0FD11D0FB6F894DEBF0FBEA7
:100E6000CDBFED0108955058BB27AA270E944B071C
:100E70000C94C2060E94B40638F00E94BB0620F013
:100E800039F49F3F19F426F40C94B1060EF4E09562
:100E9000E7FB0C94AB06E92F0E94D30658F3BA1770
:100EA000620773078407950720F079F4A6F50C9480
:100EB000F5060EF4E0950B2EBA2FA02D0B01B9010B
:100EC00090010C01CA01A0011124FF27591B99F0C0
:100ED000593F50F4503E68F11A16F040A22F232FCC
:100EE000342F4427585FF3CF469537952795A7951C
:100EF000F0405395C9F77EF41F16BA0B620B730BC3
:100F0000840BBAF09150A1F0FF0FBB1F661F771F33
:100F1000881FC2F70EC0BA0F621F731F841F48F4E8
:100F2000879577956795B795F7959E3F08F0B0CF71
:100F30009395880F08F09927EE0F97958795089558
:100F40000E94B4070C94C2060E94BB0658F00E948F
:100F5000B40640F029F45F3F29F00C94AB06511120
:100F60000C94F6060C94B1060E94D30668F39923FC
:100F7000B1F3552391F3951B550BBB27AA27621795
:100F80007307840738F09F5F5F4F220F331F441FA2
:100F9000AA1FA9F335D00E2E3AF0E0E832D09150D6
:100FA0005040E695001CCAF72BD0FE2F29D0660FC3
:100FB000771F881FBB1F261737074807AB07B0E806
:100FC00009F0BB0B802DBF01FF2793585F4F3AF00C
:100FD0009E3F510578F00C94AB060C94F6065F3FEB
:100FE000E4F3983ED4F3869577956795B795F79592
:100FF0009F5FC9F7880F911D9695879597F908957A
:10100000E1E0660F771F881FBB1F62177307840715
:10101000BA0720F0621B730B840BBA0BEE1F88F724
:10102000E09508950E9419086894B1110C94F60691
:1010300008950E94DB0688F09F5798F0B92F9927F2
:10104000B751B0F0E1F0660F771F881F991F1AF0B3
:10105000BA95C9F714C0B13091F00E94F506B1E01D
:1010600008950C94F506672F782F8827B85F39F01C
:10107000B93FCCF3869577956795B395D9F73EF44C
:1010800090958095709561957F4F8F4F9F4F0895F4
:101090000E941A0608F48FEF08950E941A06880B22
:1010A000990B0895A1E21A2EAA1BBB1BFD010DC0CE
:1010B000AA1FBB1FEE1FFF1FA217B307E407F50708
:1010C00020F0A21BB30BE40BF50B661F771F881FE4
:1010D000991F1A9469F760957095809590959B017A
:1010E000AC01BD01CF010895EE0FFF1F0590F491F3
:1010F000E02D0994CF93DF938230910510F482E0C4
:1011000090E0E091D201F091D30120E030E0C0E026
:10111000D0E0309711F14081518148175907C0F054
:101120004817590761F482819381209719F09B83B6
:101130008A832BC09093D3018093D20126C02115BE
:10114000310519F04217530718F49A01BE01DF0167
:10115000EF010280F381E02DDCCF2115310509F18B
:10116000281B390B2430310590F412968D919C91F7
:1011700013976115710521F0FB019383828304C0ED
:101180009093D3018093D201FD01329644C0FD01BA
:10119000E20FF31F81939193225031092D933C93D9
:1011A0003AC02091D0013091D101232B41F42091FC
:1011B0000201309103013093D1012093D00120919D
:1011C0000001309101012115310541F42DB73EB7E1
:1011D0004091040150910501241B350BE091D00191
:1011E000F091D101E217F307A0F42E1B3F0B281753
:1011F000390778F0AC014E5F5F4F2417350748F090
:101200004E0F5F1F5093D1014093D0018193919372
:1012100002C0E0E0F0E0CF01DF91CF9108950F939D
:101220001F93CF93DF93009709F48CC0FC01329792
:10123000138212820091D2011091D3010115110580
:1012400081F420813181820F931F2091D001309150
:10125000D1012817390779F5F093D101E093D00136
:1012600071C0D80140E050E0AE17BF0750F41296AD
:101270002D913C911397AD012115310509F1D9014B
:10128000F3CF9D01DA013383228360817181860F60
:10129000971F8217930769F4EC0128813981260F83
:1012A000371F2E5F3F4F318320838A819B81938339
:1012B0008283452B29F4F093D301E093D20142C0FD
:1012C0001396FC93EE931297ED01499159919E016B
:1012D000240F351FE217F30771F480819181840F89
:1012E000951F029611969C938E93828193811396FB
:1012F0009C938E931297E0E0F0E0D80112968D91C6
:101300009C911397009719F0F8018C01F6CF8D91FD
:101310009C9198012E5F3F4F820F931F2091D00127
:101320003091D1012817390769F4309729F41092C8
:10133000D3011092D20102C0138212821093D10104
:101340000093D001DF91CF911F910F910895A0E0FC
:10135000B0E0EDEAF9E00C940007EC01009721F40D
:10136000CB010E947A08B8C0FC01E60FF71F9C0170
:1013700022503109E217F30708F4ACC0D9010D91EE
:101380001C91119706171707B0F00530110508F4E6
:101390009FC0C80104978617970708F499C00250A8
:1013A0001109061B170B019311936D937C93CF01C9
:1013B0000E940F098DC05B01A01AB10A4C01800E7A
:1013C000911EA091D201B091D30140E050E0E12CF8
:1013D000F12C109709F44AC0A815B905D1F56D9004
:1013E0007C901197630182E0C80ED11CCA14DB0403
:1013F00080F1A3014A195B096A0182E0C80ED11C81
:101400001296BC9012971396AC91B5E0CB16D1040E
:1014100040F0B282A38351834083D9016D937C93C2
:101420000AC00E5F1F4FC301800F911FF901918306
:101430008083EB2DFA2FE114F10431F0D7011396DC
:10144000FC93EE93129744C0F093D301E093D20142
:101450003FC08D919C9111974817590708F4AC0132
:101460007D0112960D90BC91A02DB3CF8091D0013B
:101470009091D10188159905E1F446175707C8F4F2
:101480008091000190910101009741F48DB79EB7C2
:101490004091040150910501841B950BE817F90751
:1014A000C8F4F093D101E093D001F9017183608316
:1014B0000FC0CB010E947A087C01009759F0A80167
:1014C000BE010E94760ACE010E940F09C70104C026
:1014D000CE0102C080E090E0CDB7DEB7EEE00C9424
:1014E0001C0781E090E0F8940C94860AFB01DC0173
:1014F00002C001900D9241505040D8F70895FB0171
:10150000DC0101900D920020E1F70895F894FFCFDF
:101510000000D4018000000000006401CD00FC0048
:10152000AB012D010B011F016E616E00696E66003B
:081530006F7666000D0A000051
:00000001FF
