:100000000C945D000C9485000C9485000C94850084
:100010000C9485000C9485000C9485000C9485004C
:100020000C9485000C9485000C9485000C9485003C
:100030000C9485000C9485000C9485000C9485002C
:100040000C9458030C9485000C9426030C94000324
:100050000C9485000C9485000C9485000C9485000C
:100060000C9485000C9485000000000024002700FB
:100070002A0000000000250028002B0004040404CE
:100080000404040402020202020203030303030342
:10009000010204081020408001020408102001021F
:1000A00004081020000000080002010000030407FB
:1000B0000000000000000000AA0511241FBECFEFC1
:1000C000D8E0DEBFCDBF11E0A0E0B1E0E8E9F6E1A5
:1000D00002C005900D92AC32B107D9F721E0ACE235
:1000E000B1E001C01D92A83DB207E1F710E0CDE5F7
:1000F000D0E004C02197FE010E943809CC35D10719
:10010000C9F70E94A2030C944A0B0C9400002FB76D
:10011000F8948091330190913401A0913501B09110
:1001200036012FBF80933F0190934001A09341017E
:10013000B0934201E0913701F09138010284F385D8
:10014000E02D87E391E0099597FF26C02FB7F8943B
:100150008091330190913401A0913501B091360125
:100160002FBF40913F01509140016091410170913A
:100170004201841B950BA60BB70B40913B0150919C
:100180003C0160913D0170913E0184179507A607DF
:10019000B70780F28FEF9FEF0895CF92DF92EF9233
:1001A000FF920F931F93CF93DF936C017A018B0122
:1001B000C0E0D0E0CE15DF0589F0D8016D918D014A
:1001C000D601ED91FC910190F081E02DC6010995D9
:1001D000892B11F47E0102C02196ECCFC701DF917B
:1001E000CF911F910F91FF90EF90DF90CF900895E6
:1001F000089580E090E00895FC01538D448D252FF3
:1002000030E0842F90E0821B930B541710F0CF96B0
:10021000089501970895FC01918D828D981761F0E2
:10022000828DDF01A80FB11D5D968C91928D9F5F2D
:100230009F73928F90E008958FEF9FEF0895FC01D8
:10024000918D828D981731F0828DE80FF11D858D8B
:1002500090E008958FEF9FEF0895FC01918D228D1E
:10026000892F90E0805C9F4F821B91098F739927A3
:10027000089587E391E00E942D0121E0892B09F484
:1002800020E0822F0895FC01848DDF01A80FB11DAD
:10029000A35ABF4F2C91848D90E001968F739927BC
:1002A000848FA689B7892C93A089B1898C918064A9
:1002B0008C93938D848D981306C00288F389E02D6A
:1002C00080818F7D80830895EF92FF920F931F931B
:1002D000CF93DF93EC0181E0888F9B8D8C8D9813F9
:1002E00005C0E889F989808185FD24C0F62E0B8D33
:1002F00010E00F5F1F4F0F731127E02E8C8DE81257
:100300000CC00FB607FCFACFE889F989808185FF18
:10031000F5CFCE010E944301F1CF8B8DFE01E80F96
:10032000F11DE35AFF4FF0820B8FEA89FB89808130
:10033000806207C0EE89FF896083E889F98980813E
:100340008064808381E090E0DF91CF911F910F91D5
:10035000FF90EF900895CF93DF93EC01888D882371
:10036000C9F0EA89FB89808185FD05C0A889B98922
:100370008C9186FD0FC00FB607FCF5CF808185FFFD
:10038000F2CFA889B9898C9185FFEDCFCE010E946B
:100390004301E7CFDF91CF91089580E090E0892B72
:1003A00029F00E94390181110C940000089590E019
:1003B000FC01EC55FF4F3491FC01E057FF4F2491B5
:1003C000FC01E458FF4FE491EE2309F43BC03323D2
:1003D00039F1333091F038F43130A9F0323001F591
:1003E00084B58F7D12C0373091F03830A1F03430B1
:1003F000B9F4809180008F7D03C0809180008F7759
:10040000809380000DC084B58F7784BD09C0809132
:10041000B0008F7703C08091B0008F7D8093B000D3
:10042000F0E0EE0FFF1FEE58FF4FA591B4918FB78C
:10043000F894EC91611103C020952E2301C02E2B5E
:100440002C938FBF0895CF93DF9390E0FC01E0578A
:10045000FF4F2491FC01E458FF4F8491882361F100
:1004600090E0880F991FFC01E859FF4FC591D49186
:10047000FC01EE58FF4FA591B491611109C09FB7DF
:10048000F8948881209582238883EC912E230BC0D9
:10049000623061F49FB7F8943881822F809583236E
:1004A0008883EC912E2B2C939FBF06C08FB7F894B6
:1004B000E8812E2B28838FBFDF91CF9108953FB71E
:1004C000F89480912D0190912E01A0912F01B0916F
:1004D000300126B5A89B05C02F3F19F00196A11D3C
:1004E000B11D3FBFBA2FA92F982F8827820F911DCA
:1004F000A11DB11DBC01CD0142E0660F771F881F11
:10050000991F4A95D1F70895009769F0FC01019071
:100510000020E9F73197AF01481B590BBC0187E375
:1005200091E00C94CD0080E090E008958F929F922E
:10053000AF92BF920F931F93CF93DF93CDB7DEB7E8
:10054000A1970FB6F894DEBF0FBECDBF19A24230FF
:1005500008F44AE08E010F5D1F4F842E912CA12CD0
:10056000B12CA50194010E94C007E62FB901CA0170
:1005700001501109EA3014F4E05D01C0E95CD801D2
:10058000EC93232B242B252B61F7C8010E948402B6
:10059000A1960FB6F894DEBF0FBECDBFDF91CF910D
:1005A0001F910F91BF90AF909F908F9008950E94E0
:1005B000350B0F931F93CF93DF93EC0188819981C3
:1005C000009729F02A813B812617370788F48B0191
:1005D0006F5F7F4F0E946B0A009761F09983888359
:1005E0001B830A832C813D81232B11F4FC01108293
:1005F00081E001C080E0DF91CF911F910F910895BC
:100600001F920F920FB60F9211242F933F934F9387
:100610005F936F937F938F939F93AF93BF93EF936A
:10062000FF9387E391E00E944301FF91EF91BF9117
:10063000AF919F918F917F916F915F914F913F917A
:100640002F910F900FBE0F901F9018951F920F9231
:100650000FB60F9211242F938F939F93EF93FF93D5
:10066000E0914701F09148018081E0914D01F091C6
:100670004E0182FD12C09081809150018F5F8F7377
:1006800020915101821751F0E0915001F0E0E95CB6
:10069000FE4F958F8093500101C08081FF91EF91B3
:1006A0009F918F912F910F900FBE0F901F901895D3
:1006B0001F920F920FB60F9211242F933F938F9397
:1006C0009F93AF93BF938091330190913401A09198
:1006D0003501B091360130912C0123E0230F2D37E5
:1006E00020F40196A11DB11D05C026E8230F029636
:1006F000A11DB11D20932C018093330190933401EF
:10070000A0933501B093360180912D0190912E0177
:10071000A0912F01B09130010196A11DB11D8093D0
:100720002D0190932E01A0932F01B0933001BF9122
:10073000AF919F918F913F912F910F900FBE0F908E
:100740001F901895CF93DF93CDB7DEB728970FB6DC
:10075000F894DEBF0FBECDBF789484B5826084BDAF
:1007600084B5816084BD85B5826085BD85B58160B5
:1007700085BD80916E00816080936E001092810033
:1007800080918100826080938100809181008160EE
:1007900080938100809180008160809380008091AF
:1007A000B10084608093B1008091B000816080933B
:1007B000B00080917A00846080937A0080917A0002
:1007C000826080937A0080917A00816080937A00C1
:1007D00080917A00806880937A001092C100E09145
:1007E0004701F091480182E08083E0914301F0915C
:1007F00044011082E0914501F09146018FEC808325
:1008000010924F01E0914B01F0914C0186E0808302
:10081000E0914901F0914A01808180618083E091FB
:100820004901F0914A01808188608083E09149010B
:10083000F0914A01808180688083E0914901F091C4
:100840004A0180818F7D808360E08FE00E942302D7
:1008500061E086E00E94230261E087E00E942302BB
:1008600091E4392E0FEE10E030927C0080917A00F6
:10087000806480937A0080917A0086FDFCCF80911D
:1008800078002091790090E0922B90933201809330
:1008900031010E942306B8010E941009BC01655A6B
:1008A0007E4F072E000C880B990B0E943A0620E021
:1008B00030E040E251E40E945E086B017C019B0144
:1008C000AC010E940B09882319F08CE191E01AC059
:1008D00046015701E894B7F82FEF3FEF4FE75FE786
:1008E000C501B4010E940B0981110FC02FEF3FEF2A
:1008F0004FE75FE7C501B4010E94330618162CF4D8
:1009000080E291E00E94840282C02FEF3FEF4FE728
:100910005FE4C701B6010E94060918161CF484E2C0
:1009200091E0F0CF2FEF3FEF4FE75FECC701B6014B
:100930000E94330687FDF3CF20E030E0A901C70114
:10094000B6010E94330687FF0FC0E0913701F09196
:1009500038010190F081E02D6DE287E391E0099587
:10096000C701B601905802C0C701B6012AE037EDB1
:1009700043EA5BE30E94F2072B013C010E94D70887
:100980004B015C010E9438069B01AC01C301B2011E
:100990000E94F1072B013C014AE0C501B4010E940D
:1009A0009602E0913701F09138010190F081E02D3D
:1009B0006EE287E391E0099520E030E040E251E407
:1009C000C301B2010E9499062B013C010E94D70885
:1009D0004B01A12CB12C4AE0C501B4010E94960242
:1009E000C501B4010E9438069B01AC01C301B201EC
:1009F0000E94F10720E030E040E251E40E949906B5
:100A00000E94D70880E090E04AE00E94960288E2C7
:100A100091E00E94840287E391E00E942D01181664
:100A200019060CF055C0C701B6010E94D008862EE9
:100A30001A8219821C821B821E821D8260E070E075
:100A4000CE0101960E94D90229813A8181110DC0FF
:100A50002115310519F0C9010E94D3091A821982A2
:100A60001E821D821C821B8207C01E821D826AE2BA
:100A700071E0C9010E94430B0E948700082C000C02
:100A8000990897FD21C088159905F1F08F83188684
:100A9000AD80BE802FEFA21AB20AB501CE01019639
:100AA0000E94D902882369F029813A818D819E8133
:100AB000BE01695F7F4F820F931F0E94430BBE826E
:100AC000AD820E948700DDCF89819A810E94D3097F
:100AD00026E636E646E152E4C701B6010E94060961
:100AE000181634F460E086E00E94D70161E005C08A
:100AF00061E086E00E94D70160E087E00E94D701B4
:100B00000E945F024B015C0188EEC82E83E0D82E64
:100B1000E12CF12C0E945F02DC01CB0188199909BC
:100B2000AA09BB09883E9340A105B10558F081E0B0
:100B3000C81AD108E108F10828EE820E23E0921EBF
:100B4000A11CB11CC114D104E104F10419F70E94E5
:100B5000CD018ACEE7E3F1E01382128288EE93E0C2
:100B6000A0E0B0E084839583A683B7838EE091E014
:100B70009183808385EC90E09587848784EC90E076
:100B80009787868780EC90E0918B808B81EC90E05A
:100B9000938B828B82EC90E0958B848B86EC90E03B
:100BA000978B868B118E128E138E148E08958F92D2
:100BB0009F92AF92BF92CF92DF92EF92FF92CF932C
:100BC000DF93EC01688179818A819B8161157105D0
:100BD0008105910521F464E279ED8BE597E02DE143
:100BE00033EF41E050E00E94570749015A019B0151
:100BF000AC01A7EAB1E40E9476076B017C01ACEE80
:100C0000B4EFA50194010E948407DC01CB018C0D97
:100C10009D1DAE1DBF1DB7FF03C00197A109B048C0
:100C200088839983AA83BB839F77DF91CF91FF90BD
:100C3000EF90DF90CF90BF90AF909F908F900895EE
:100C40000E94D705089580E091E00E94D70508959D
:100C5000A0E0B0E08093000190930101A093020115
:100C6000B093030108950E94750608F481E0089589
:100C7000E89409C097FB3EF4909580957095619536
:100C80007F4F8F4F9F4F9923A9F0F92F96E9BB27EC
:100C90009395F695879577956795B795F111F8CF68
:100CA000FAF4BB0F11F460FF1BC06F5F7F4F8F4FD3
:100CB0009F4F16C0882311F096E911C0772321F0C9
:100CC0009EE8872F762F05C0662371F096E8862F61
:100CD00070E060E02AF09A95660F771F881FDAF7B8
:100CE000880F9695879597F90895990F0008550FE5
:100CF000AA0BE0E8FEEF16161706E807F907C0F0A2
:100D000012161306E407F50798F0621B730B840BA9
:100D1000950B39F40A2661F0232B242B252B21F483
:100D200008950A2609F4A140A6958FEF811D811D23
:100D300008950E94AC060C941D070E940F0738F01E
:100D40000E94160720F0952311F00C9406070C94CE
:100D50000C0711240C9451070E942E0770F3959FE5
:100D6000C1F3950F50E0551F629FF001729FBB27A2
:100D7000F00DB11D639FAA27F00DB11DAA1F649F3E
:100D80006627B00DA11D661F829F2227B00DA11DF1
:100D9000621F739FB00DA11D621F839FA00D611D77
:100DA000221F749F3327A00D611D231F849F600D98
:100DB000211D822F762F6A2F11249F5750409AF0C1
:100DC000F1F088234AF0EE0FFF1FBB1F661F771F4D
:100DD000881F91505040A9F79E3F510580F00C9418
:100DE00006070C9451075F3FE4F3983ED4F38695D1
:100DF00077956795B795F795E7959F5FC1F7FE2BB8
:100E0000880F911D9695879597F9089597F99F6793
:100E100080E870E060E008959FEF80EC0895002482
:100E20000A941616170618060906089500240A944F
:100E300012161306140605060895092E0394000CD5
:100E400011F4882352F0BB0F40F4BF2B11F460FF64
:100E500004C06F5F7F4F8F4F9F4F089557FD90588D
:100E6000440F551F59F05F3F71F04795880F97FB6E
:100E7000991F61F09F3F79F0879508951216130628
:100E80001406551FF2CF4695F1DF08C01616170657
:100E90001806991FF1CF869571056105089408958C
:100EA000E894BB2766277727CB0197F90895052E8D
:100EB00097FB1EF400940E946E0757FD07D00E9416
:100EC000C00707FC03D04EF40C946E075095409574
:100ED000309521953F4F4F4F5F4F089590958095E6
:100EE000709561957F4F8F4F9F4F08950E94E20745
:100EF000A59F900DB49F900DA49F800D911D11246E
:100F00000895B7FF0C9476070E947607821B930B17
:100F100008952F923F924F925F926F927F928F929D
:100F20009F92AF92BF92CF92DF92EF92FF920F9378
:100F30001F93CF93DF93CDB7DEB7CA1BDB0B0FB682
:100F4000F894DEBF0FBECDBF09942A88398848883F
:100F50005F846E847D848C849B84AA84B984C884D5
:100F6000DF80EE80FD800C811B81AA81B981CE0FCC
:100F7000D11D0FB6F894DEBF0FBECDBFED010895B1
:100F8000A1E21A2EAA1BBB1BFD010DC0AA1FBB1F8D
:100F9000EE1FFF1FA217B307E407F50720F0A21BFF
:100FA000B30BE40BF50B661F771F881F991F1A946C
:100FB00069F760957095809590959B01AC01BD0196
:100FC000CF010895A29FB001B39FC001A39F700DF0
:100FD000811D1124911DB29F700D811D1124911D41
:100FE00008955058BB27AA270E9409080C941D0792
:100FF0000E940F0738F00E94160720F039F49F3F37
:1010000019F426F40C940C070EF4E095E7FB0C940D
:101010000607E92F0E942E0758F3BA1762077307D5
:101020008407950720F079F4A6F50C9450070EF488
:10103000E0950B2EBA2FA02D0B01B90190010C01E8
:10104000CA01A0011124FF27591B99F0593F50F400
:10105000503E68F11A16F040A22F232F342F442758
:10106000585FF3CF469537952795A795F040539550
:10107000C9F77EF41F16BA0B620B730B840BBAF020
:101080009150A1F0FF0FBB1F661F771F881FC2F78B
:101090000EC0BA0F621F731F841F48F4879577959F
:1010A0006795B795F7959E3F08F0B0CF9395880F59
:1010B00008F09927EE0F9795879508950E9472087A
:1010C0000C941D070E94160758F00E940F0740F06D
:1010D00029F45F3F29F00C94060751110C94510735
:1010E0000C940C070E942E0768F39923B1F3552343
:1010F00091F3951B550BBB27AA276217730784072B
:1011000038F09F5F5F4F220F331F441FAA1FA9F3C0
:1011100035D00E2E3AF0E0E832D091505040E695AE
:10112000001CCAF72BD0FE2F29D0660F771F881F0F
:10113000BB1F261737074807AB07B0E809F0BB0B02
:10114000802DBF01FF2793585F4F3AF09E3F510516
:1011500078F00C9406070C9451075F3FE4F3983E37
:10116000D4F3869577956795B795F7959F5FC9F7FF
:10117000880F911D9695879597F90895E1E0660F80
:10118000771F881FBB1F621773078407BA0720F0F9
:10119000621B730B840BBA0BEE1F88F7E095089562
:1011A0000E94D7086894B1110C94510708950E94C9
:1011B000360788F09F5798F0B92F9927B751B0F0AC
:1011C000E1F0660F771F881F991F1AF0BA95C9F7CB
:1011D00014C0B13091F00E945007B1E008950C9412
:1011E0005007672F782F8827B85F39F0B93FCCF3C5
:1011F000869577956795B395D9F73EF49095809548
:10120000709561957F4F8F4F9F4F08950E9475068F
:1012100008F48FEF08950E947506880B990B0895C6
:1012200097FB072E16F4009407D077FD09D00E9493
:10123000240907FC05D03EF4909581959F4F0895B1
:10124000709561957F4F0895AA1BBB1B51E107C0A4
:10125000AA1FBB1FA617B70710F0A61BB70B881F46
:10126000991F5A95A9F780959095BC01CD010895D5
:10127000EE0FFF1F0590F491E02D0994CF93DF93BB
:101280008230910510F482E090E0E091D601F09177
:10129000D70120E030E0C0E0D0E0309711F140818C
:1012A000518148175907C0F04817590761F48281E6
:1012B0009381209719F09B838A832BC09093D70149
:1012C0008093D60126C02115310519F04217530726
:1012D00018F49A01BE01DF01EF010280F381E02DD5
:1012E000DCCF2115310509F1281B390B24303105DC
:1012F00090F412968D919C9113976115710521F0D0
:10130000FB019383828304C09093D7018093D6011D
:10131000FD01329644C0FD01E20FF31F81939193CA
:10132000225031092D933C933AC02091D401309141
:10133000D501232B41F42091060130910701309310
:10134000D5012093D401209104013091050121158C
:10135000310541F42DB73EB7409108015091090184
:10136000241B350BE091D401F091D501E217F3076E
:10137000A0F42E1B3F0B2817390778F0AC014E5F05
:101380005F4F2417350748F04E0F5F1F5093D5016C
:101390004093D4018193919302C0E0E0F0E0CF014B
:1013A000DF91CF9108950F931F93CF93DF93009711
:1013B00009F48CC0FC013297138212820091D6018D
:1013C0001091D7010115110581F420813181820F1F
:1013D000931F2091D4013091D5012817390779F551
:1013E000F093D501E093D40171C0D80140E050E002
:1013F000AE17BF0750F412962D913C911397AD0193
:101400002115310509F1D901F3CF9D01DA013383AB
:10141000228360817181860F971F8217930769F479
:10142000EC0128813981260F371F2E5F3F4F318312
:1014300020838A819B8193838283452B29F4F093B7
:10144000D701E093D60142C01396FC93EE93129716
:10145000ED01499159919E01240F351FE217F307C1
:1014600071F480819181840F951F029611969C934F
:101470008E938281938113969C938E931297E0E0D2
:10148000F0E0D80112968D919C911397009719F076
:10149000F8018C01F6CF8D919C9198012E5F3F4F02
:1014A000820F931F2091D4013091D501281739075D
:1014B00069F4309729F41092D7011092D60102C036
:1014C000138212821093D5010093D401DF91CF9142
:1014D0001F910F910895A0E0B0E0E1E7FAE00C94CD
:1014E0008D07EC01009721F4CB010E943E09B8C0A2
:1014F000FC01E60FF71F9C0122503109E217F307A8
:1015000008F4ACC0D9010D911C911197061717076B
:10151000B0F00530110508F49FC0C8010497861784
:10152000970708F499C002501109061B170B019385
:1015300011936D937C93CF010E94D3098DC05B0101
:10154000A01AB10A4C01800E911EA091D601B09153
:10155000D70140E050E0E12CF12C109709F44AC08B
:10156000A815B905D1F56D907C901197630182E0C3
:10157000C80ED11CCA14DB0480F1A3014A195B090F
:101580006A0182E0C80ED11C1296BC901297139685
:10159000AC91B5E0CB16D10440F0B282A383518365
:1015A0004083D9016D937C930AC00E5F1F4FC30126
:1015B000800F911FF90191838083EB2DFA2FE114A5
:1015C000F10431F0D7011396FC93EE93129744C0C7
:1015D000F093D701E093D6013FC08D919C91119774
:1015E0004817590708F4AC017D0112960D90BC9183
:1015F000A02DB3CF8091D4019091D5018815990584
:10160000E1F446175707C8F4809104019091050151
:10161000009741F48DB79EB74091080150910901A0
:10162000841B950BE817F907C8F4F093D501E093F4
:10163000D401F901718360830FC0CB010E943E0980
:101640007C01009759F0A801BE010E943A0BCE011F
:101650000E94D309C70104C0CE0102C080E090E01F
:10166000CDB7DEB7EEE00C94A90781E090E0F894E6
:101670000C944A0BFB01DC0102C001900D92415019
:101680005040D8F70895FB01DC0101900D92002035
:08169000E1F70895F894FFCF83
:10169800010000000000D801800000000000640183
:1016A800CD00FC00AB012D010B011F016E616E0026
:0C16B800696E66006F7666000D0A000087
:107E0000112484B714BE81FFF0D085E080938100F7
:107E100082E08093C00088E18093C10086E0809377
:107E2000C20080E18093C4008EE0C9D0259A86E02C
:107E300020E33CEF91E0309385002093840096BBD3
:107E4000B09BFECF1D9AA8958150A9F7CC24DD24C4
:107E500088248394B5E0AB2EA1E19A2EF3E0BF2EE7
:107E6000A2D0813461F49FD0082FAFD0023811F036
:107E7000013811F484E001C083E08DD089C08234E0
:107E800011F484E103C0853419F485E0A6D080C0E4
:107E9000853579F488D0E82EFF2485D0082F10E0AE
:107EA000102F00270E291F29000F111F8ED06801E7
:107EB0006FC0863521F484E090D080E0DECF843638
:107EC00009F040C070D06FD0082F6DD080E0C81688
:107ED00080E7D80618F4F601B7BEE895C0E0D1E017
:107EE00062D089930C17E1F7F0E0CF16F0E7DF06D8
:107EF00018F0F601B7BEE89568D007B600FCFDCFD4
:107F0000A601A0E0B1E02C9130E011968C91119780
:107F100090E0982F8827822B932B1296FA010C0160
:107F200087BEE89511244E5F5F4FF1E0A038BF0790
:107F300051F7F601A7BEE89507B600FCFDCF97BE46
:107F4000E89526C08437B1F42ED02DD0F82E2BD052
:107F50003CD0F601EF2C8F010F5F1F4F84911BD097
:107F6000EA94F801C1F70894C11CD11CFA94CF0C13
:107F7000D11C0EC0853739F428D08EE10CD085E9AC
:107F80000AD08FE07ACF813511F488E018D01DD067
:107F900080E101D065CF982F8091C00085FFFCCF94
:107FA0009093C60008958091C00087FFFCCF809118
:107FB000C00084FD01C0A8958091C6000895E0E648
:107FC000F0E098E1908380830895EDDF803219F02E
:107FD00088E0F5DFFFCF84E1DECF1F93182FE3DFCA
:107FE0001150E9F7F2DF1F91089580E0E8DFEE27F6
:047FF000FF270994CA
:027FFE00040479
:0400000300007E007B
:00000001FF
