:100000000C9463000C948B000C948B000C948B006C
:100010000C948B000C948B000C948B000C948B0034
:100020000C948B000C948B000C948B000C948B0024
:100030000C948B000C948B000C948B000C948B0014
:100040000C9482040C948B000C9450040C942A049D
:100050000C948B000C948B000C948B000C948B00F4
:100060000C948B000C948B000000000024002700EF
:100070002A0000000000250028002B0000000000DE
:1000800023002600290004040404040404040202DA
:100090000202020203030303030301020408102007
:1000A0004080010204081020010204081020000012
:1000B0000008000201000003040700000000000027
:1000C0000000CC04BD0611241FBECFEFD8E0DEBF78
:1000D000CDBF22E0AEE6B1E001C01D92A633B2076B
:1000E000E1F711E0A0E0B1E0ECE9F2E102C0059037
:1000F0000D92AE36B107D9F710E0C2E6D0E004C0E9
:100100002197FE010E942F07C136D107C9F70E942F
:1001100027050C9441090C9400000895CF92DF92BA
:10012000EF92FF920F931F93CF93DF936C017A01AD
:100130008B01C0E0D0E0CE15DF0589F0D8016D91CC
:100140008D01D601ED91FC910190F081E02DC60169
:100150000995892B11F47E0102C02196ECCFC701CD
:10016000DF91CF911F910F91FF90EF90DF90CF9093
:100170000895FC01538D448D252F30E0842F90E0AD
:10018000821B930B541710F0CF9608950197089592
:10019000FC01918D828D981761F0828DDF01A80F8F
:1001A000B11D5D968C91928D9F5F9F73928F90E0B1
:1001B00008958FEF9FEF0895FC01918D828D981720
:1001C00031F0828DE80FF11D858D90E008958FEF5D
:1001D0009FEF0895FC01918D228D892F90E0805C26
:1001E0009F4F821B91098F739927089587E791E0AC
:1001F0000E94EA0021E0892B09F420E0822F089573
:10020000FC01848DDF01A80FB11DA35ABF4F2C91B3
:10021000848D90E001968F739927848FA689B78982
:100220002C93A089B1898C9180648C93938D848D5B
:10023000981306C00288F389E02D80818F7D80832A
:100240000895EF92FF920F931F93CF93DF93EC01EA
:1002500081E0888F9B8D8C8D981305C0E889F98982
:10026000808185FD24C0F62E0B8D10E00F5F1F4F9F
:100270000F731127E02E8C8DE8120CC00FB607FC0F
:10028000FACFE889F989808185FFF5CFCE010E94F8
:100290000001F1CF8B8DFE01E80FF11DE35AFF4FF6
:1002A000F0820B8FEA89FB898081806207C0EE892A
:1002B000FF896083E889F98980818064808381E097
:1002C00090E0DF91CF911F910F91FF90EF900895F3
:1002D000CF93DF93EC01888D8823C9F0EA89FB89ED
:1002E000808185FD05C0A889B9898C9186FD0FC0E4
:1002F0000FB607FCF5CF808185FFF2CFA889B989B9
:100300008C9185FFEDCFCE010E940001E7CFDF91F8
:10031000CF91089580E090E0892B29F00E94F600AB
:1003200081110C9400000895833081F028F481300D
:1003300099F08230A1F008958730A9F08830B9F0A3
:100340008430D1F4809180008F7D03C08091800043
:100350008F7780938000089584B58F7702C084B52D
:100360008F7D84BD08958091B0008F7703C0809108
:10037000B0008F7D8093B0000895CF93DF93282F36
:1003800030E0F901E255FF4F8491F901E656FF4F45
:10039000D491F901EA57FF4FC491CC2391F0811118
:1003A0000E949401EC2FF0E0EE0FFF1FE458FF4F86
:1003B000A591B491EC91ED2381E090E021F480E0EF
:1003C00002C080E090E0DF91CF9108951F93CF931A
:1003D000DF93282F30E0F901E255FF4F8491F901B6
:1003E000E656FF4FD491F901EA57FF4FC491CC2351
:1003F000C9F0162F81110E949401EC2FF0E0EE0F4E
:10040000FF1FEE58FF4FA591B4918FB7F8941111CB
:1004100005C09C91ED2FE095E92302C0EC91ED2BF6
:10042000EC938FBFDF91CF911F910895CF93DF930E
:1004300090E0FC01E656FF4F2491FC01EA57FF4F84
:100440008491882361F190E0880F991FFC01E8599D
:10045000FF4FC591D491FC01EE58FF4FA591B49187
:10046000611109C09FB7F894888120958223888301
:10047000EC912E230BC0623061F49FB7F894388161
:10048000822F809583238883EC912E2B2C939FBF02
:1004900006C08FB7F894E8812E2B28838FBFDF9199
:1004A000CF9108953FB7F8948091730190917401B2
:1004B000A0917501B091760126B5A89B05C02F3F8C
:1004C00019F00196A11DB11D3FBFBA2FA92F982F7A
:1004D0008827820F911DA11DB11DBC01CD0142E0F5
:1004E000660F771F881F991F4A95D1F70895CF93FC
:1004F000DF93EC0160E08E810E94E60161E08E8175
:100500000E94E60160E08E810E94E6018BE891E0A6
:100510000197F1F7DF91CF910895CF92DF92EF929B
:10052000FF920F931F93CF93DF937C016C0187E0C1
:10053000C80ED11CC0E0D0E0062F10E0B8010C2E90
:1005400002C0759567950A94E2F76170F601819192
:100550006F010E94E6012196C430D10579F7C701E9
:10056000DF91CF911F910F91FF90EF90DF90CF908F
:100570000C947702CF92DF92EF92FF920F931F932A
:10058000CF93DF93EC01F62E642F8C810E94E6015D
:100590008D818F3F19F060E00E94E6018F850F2D5D
:1005A00010E084FF25C06E0187E0C80ED11CE12C4D
:1005B000F12CB8010E2C02C0759567950A94E2F7EC
:1005C0006170F60181916F010E94E601FFEFEF1A61
:1005D000FF0A88E0E816F10461F7CE01DF91CF91C0
:1005E0001F910F91FF90EF90DF90CF900C947702C6
:1005F000B80184E0759567958A95E1F7CE010E9470
:100600008D026F2DCE01DF91CF911F910F91FF9041
:10061000EF90DF90CF900C948D0241E00E94BA02DF
:1006200081E090E0089540E00C94BA02EF92FF92CE
:100630000F931F93CF93DF93EC01423018F08F8517
:1006400088608F874B8B1C8A80E48D8B6E8B70E06B
:10065000605C7F4F6F8B61E08C810E9416028D8100
:100660008F3F19F061E00E94160261E08E810E94C6
:1006700016027E0187E0E80EF11C00E010E08F8595
:1006800084FD03C084E090E002C088E090E0081799
:1006900019074CF461E0F70181917F010E94160275
:1006A0000F5F1F4FECCF8BE39DE00197F1F760E008
:1006B0008C810E94E60160E08E810E94E6018D81BE
:1006C0008F3F19F060E00E94E6016F8564FD1DC058
:1006D00063E0CE010E948D020BE416E4C80101978D
:1006E000F1F763E0CE010E948D02C8010197F1F796
:1006F00063E0CE010E948D0283E592E00197F1F75D
:1007000062E0CE010E948D0216C06062CE010E949E
:1007100013038BE496E40197F1F76F856062CE01D5
:100720000E94130383E592E00197F1F76F85606201
:10073000CE010E9413036F856062CE010E941303F5
:1007400084E0888B6CE0CE010E94130361E0CE014F
:100750000E9413038BE39FE10197F1F782E0898BFD
:1007600066E0CE01DF91CF911F910F91FF90EF9046
:100770000C941303643008F063E090912D02691724
:1007800010F06FEF690FE62FF0E0E65EFD4F948901
:10079000682F690F60688AE192E00C941303089552
:1007A00080E090E008956115710579F0FB010190FA
:1007B0000020E9F73197AF01461B570BDC01ED91A3
:1007C000FC910280F381E02D099480E090E008958F
:1007D0000E942C09EF92FF920F931F93CF93DF9308
:1007E000EC017B018A0188819981009729F02A8197
:1007F0003B8124173507F8F4B8016F5F7F4F0E94E3
:100800006208009759F0998388831B830A832C819F
:100810003D81232B81F4FC0110820DC088819981D8
:10082000009711F00E94CA07198218821D821C824B
:100830001B821A8207C01D830C83B70188819981AE
:100840000E943A09CE01DF91CF911F910F91FF9045
:10085000EF9008951F920F920FB60F9211242F93CD
:100860003F934F935F936F937F938F939F93AF9338
:10087000BF93EF93FF9387E791E00E940001FF9100
:10088000EF91BF91AF919F918F917F916F915F9108
:100890004F913F912F910F900FBE0F901F90189581
:1008A0001F920F920FB60F9211242F938F939F9345
:1008B000EF93FF93E0918701F09188018081E091AF
:1008C0008D01F0918E0182FD12C090818091900186
:1008D0008F5F8F7320919101821751F0E091900109
:1008E000F0E0E958FE4F958F8093900101C0808120
:1008F000FF91EF919F918F912F910F900FBE0F90CD
:100900001F9018951F920F920FB60F9211242F93DC
:100910003F938F939F93AF93BF9380916F0190917B
:100920007001A0917101B091720130916E0123E0CC
:10093000230F2D3720F40196A11DB11D05C026E817
:10094000230F0296A11DB11D20936E0180936F01AC
:1009500090937001A0937101B09372018091730123
:1009600090917401A0917501B09176010196A11D3D
:10097000B11D8093730190937401A0937501B0939E
:100980007601BF91AF919F918F913F912F910F90E1
:100990000FBE0F901F901895E7E7F1E013821282C7
:1009A00088EE93E0A0E0B0E084839583A683B783CC
:1009B0008AE091E09183808385EC90E0958784873D
:1009C00084EC90E09787868780EC90E0918B808B19
:1009D00081EC90E0938B828B82EC90E0958B848B02
:1009E00086EC90E0978B868B118E128E138E148E70
:1009F000EAE1F2E0138212828CE191E0918380833C
:100A00008DE084838FEF85838CE086838BE0878302
:100A10008AE0808789E0818788E082871386148650
:100A200015861686178641E060E1CF010E94160305
:100A3000E4E1F2E0118210821382128215821482A4
:100A400040E050E06FE471E0CF010C94EA03CF93F3
:100A5000DF93CDB7DEB768970FB6F894DEBF0FBE51
:100A6000CDBF789484B5826084BD84B5816084BD37
:100A700085B5826085BD85B5816085BD80916E003C
:100A8000816080936E00109281008091810082606D
:100A900080938100809181008160809381008091AA
:100AA00080008160809380008091B1008460809399
:100AB000B1008091B00081608093B00080917A0095
:100AC000846080937A0080917A00826080937A00BB
:100AD00080917A00816080937A0080917A008068AA
:100AE00080937A001092C100E0918701F091880113
:100AF00082E08083E0918301F09184011082E09193
:100B00008501F09186018FEC808310928F01E09136
:100B10008B01F0918C0186E08083E0918901F09156
:100B20008A01808180618083E0918901F0918A014E
:100B3000808188608083E0918901F0918A018081C1
:100B400080688083E0918901F0918A0180818F7DA6
:100B5000808360E08FE00E94160261E086E00E94E0
:100B6000160261E087E00E94160262E087E00E94C0
:100B7000160244E064E18AE192E00E94160360E01C
:100B800080E00E94BA0364E271E08AE192E00E9490
:100B9000D30362E081E00E94BA036DE271E08AE172
:100BA00092E00E94D30363E084E00E94BA0360E411
:100BB00071E08AE192E00E94D30391E4B92E8E01A4
:100BC0000F5F1F4FB0927C0080917A008064809309
:100BD0007A0080917A0086FDFCCF80917800209188
:100BE00079001C8A1B8A1E8A1D8A188E1F8A90E033
:100BF0004AE0B801922B0E94C306F8010190002040
:100C0000E9F73197AF01401B510BB801CE01439674
:100C10000E94EA0380911402909115020097C9F096
:100C20006B897C896115710591F040911602509194
:100C300017022F89388D4217530748F00E943A094E
:100C40008F89988D909319028093180218C00E9482
:100C5000CA078B899C8990931502809314028D8911
:100C60009E8990931702809316028F89988D909396
:100C70001902809318021C8A1B8A1E8A1D8A188EEC
:100C80001F8A8B899C890E94CA071A8219821C823A
:100C90001B821E821D8260911402709115026115E3
:100CA000710539F04091180250911902C8010E9453
:100CB000EA036DE471E087E791E00E94D30387E0E7
:100CC0000E94BD01019781F460E088E00E94BA03B0
:100CD00060E571E08AE192E00E94D3036DE571E086
:100CE00087E791E00E94D30387E00E94BD01892B32
:100CF000B1F460E088E00E94BA036FE571E08AE138
:100D000092E00E94D3036CE671E087E791E00E94D5
:100D1000D3036DE471E087E791E00E94D3030E9462
:100D200052022B013C0188EEC82E83E0D82EE12C24
:100D3000F12C0E945202DC01CB0184199509A6090D
:100D4000B709883E9340A105B10558F021E0C21AC9
:100D5000D108E108F10888EE480E83E0581E611CB6
:100D6000711CC114D104E104F10419F789819A813D
:100D70000E94CA070E948A0125CF80911402909197
:100D800015020C94CA07BB274A3031F4992322F488
:100D9000BDE2909581959F4F0C94CF06BB27FB0138
:100DA0005527AA27880F991FAA1FA41710F0A41B64
:100DB00083955051B9F7A05DAA3308F0A95DA193BE
:100DC000009779F7B111B1931192CB010C94E80619
:100DD000DC01FC01672F71917723E1F7329704C0A2
:100DE0007C916D9370836291AE17BF07C8F308952D
:100DF0002F923F924F925F926F927F928F929F922B
:100E0000AF92BF92CF92DF92EF92FF920F931F9318
:100E1000CF93DF93CDB7DEB7CA1BDB0B0FB6F894C9
:100E2000DEBF0FBECDBF09942A88398848885F8409
:100E30006E847D848C849B84AA84B984C884DF807A
:100E4000EE80FD800C811B81AA81B981CE0FD11D5E
:100E50000FB6F894DEBF0FBECDBFED010895EE0FC3
:100E6000FF1F0590F491E02D0994CF93DF9382301A
:100E7000910510F482E090E0E0913402F0913502A7
:100E800020E030E0C0E0D0E0309711F140815181A6
:100E900048175907C0F04817590761F482819381B8
:100EA000209719F09B838A832BC0909335028093FF
:100EB000340226C02115310519F04217530718F4E2
:100EC0009A01BE01DF01EF010280F381E02DDCCF4A
:100ED0002115310509F1281B390B2430310590F417
:100EE00012968D919C9113976115710521F0FB016C
:100EF0009383828304C09093350280933402FD0172
:100F0000329644C0FD01E20FF31F8193919322506A
:100F100031092D933C933AC0209132023091330233
:100F2000232B41F4209102013091030130933302CD
:100F300020933202209100013091010121153105E9
:100F400041F42DB73EB74091040150910501241B97
:100F5000350BE0913202F0913302E217F307A0F46F
:100F60002E1B3F0B2817390778F0AC014E5F5F4FFF
:100F70002417350748F04E0F5F1F509333024093FC
:100F800032028193919302C0E0E0F0E0CF01DF9163
:100F9000CF9108950F931F93CF93DF93009709F498
:100FA0008CC0FC013297138212820091340210919E
:100FB00035020115110581F420813181820F931FC3
:100FC00020913202309133022817390779F5F093D6
:100FD0003302E093320271C0D80140E050E0AE1716
:100FE000BF0750F412962D913C911397AD01211536
:100FF000310509F1D901F3CF9D01DA013383228351
:1010000060817181860F971F8217930769F4EC0145
:1010100028813981260F371F2E5F3F4F3183208370
:101020008A819B8193838283452B29F4F093350237
:10103000E093340242C01396FC93EE931297ED01B5
:10104000499159919E01240F351FE217F30771F45E
:1010500080819181840F951F029611969C938E93A7
:101060008281938113969C938E931297E0E0F0E037
:10107000D80112968D919C911397009719F0F80161
:101080008C01F6CF8D919C9198012E5F3F4F820F7E
:10109000931F20913202309133022817390769F4E7
:1010A000309729F4109235021092340202C0138254
:1010B00012821093330200933202DF91CF911F917D
:1010C0000F910895A0E0B0E0E8E6F8E00C94FC068B
:1010D000EC01009721F4CB010E943507B8C0FC0158
:1010E000E60FF71F9C0122503109E217F30708F4BD
:1010F000ACC0D9010D911C91119706171707B0F0DC
:101100000530110508F49FC0C8010497861797079A
:1011100008F499C002501109061B170B0193119393
:101120006D937C93CF010E94CA078DC05B01A01A0A
:10113000B10A4C01800E911EA0913402B09135028B
:1011400040E050E0E12CF12C109709F44AC0A815BA
:10115000B905D1F56D907C901197630182E0C80EBE
:10116000D11CCA14DB0480F1A3014A195B096A018E
:1011700082E0C80ED11C1296BC9012971396AC91C7
:10118000B5E0CB16D10440F0B282A38351834083F3
:10119000D9016D937C930AC00E5F1F4FC301800F6E
:1011A000911FF90191838083EB2DFA2FE114F10453
:1011B00031F0D7011396FC93EE93129744C0F0934D
:1011C0003502E09334023FC08D919C9111974817EE
:1011D000590708F4AC017D0112960D90BC91A02D29
:1011E000B3CF809132029091330288159905E1F4D2
:1011F00046175707C8F480910001909101010097AC
:1012000041F48DB79EB74091040150910501841BB4
:10121000950BE817F907C8F4F0933302E093320214
:10122000F901718360830FC0CB010E9435077C01F7
:10123000009759F0A801BE010E943109CE010E9419
:10124000CA07C70104C0CE0102C080E090E0CDB75C
:10125000DEB7EEE00C94180781E090E0F8940C946F
:101260004109FB01DC0102C001900D924150504048
:10127000D8F70895FB01DC0101900D920020E1F701
:10128000089510E0C2E6D0E004C0FE010E942F07DE
:0C1290002196C336D107C9F7F894FFCFB0
:10129C000000360280000000000021018E00B90021
:1012AC006801EA00C800DC00000000000D038E009D
:1012BC00D003CF03466C616D65203A2000777777B9
:1012CC002E546865456E67696E656572696E670058
:1012DC0050726F6A656374732E636F6D000D0A0034
:1012EC004465746563746564202020200031004ED1
:0E12FC006F742044657465637465640030008F
:107E0000112484B714BE81FFF0D085E080938100F7
:107E100082E08093C00088E18093C10086E0809377
:107E2000C20080E18093C4008EE0C9D0259A86E02C
:107E300020E33CEF91E0309385002093840096BBD3
:107E4000B09BFECF1D9AA8958150A9F7CC24DD24C4
:107E500088248394B5E0AB2EA1E19A2EF3E0BF2EE7
:107E6000A2D0813461F49FD0082FAFD0023811F036
:107E7000013811F484E001C083E08DD089C08234E0
:107E800011F484E103C0853419F485E0A6D080C0E4
:107E9000853579F488D0E82EFF2485D0082F10E0AE
:107EA000102F00270E291F29000F111F8ED06801E7
:107EB0006FC0863521F484E090D080E0DECF843638
:107EC00009F040C070D06FD0082F6DD080E0C81688
:107ED00080E7D80618F4F601B7BEE895C0E0D1E017
:107EE00062D089930C17E1F7F0E0CF16F0E7DF06D8
:107EF00018F0F601B7BEE89568D007B600FCFDCFD4
:107F0000A601A0E0B1E02C9130E011968C91119780
:107F100090E0982F8827822B932B1296FA010C0160
:107F200087BEE89511244E5F5F4FF1E0A038BF0790
:107F300051F7F601A7BEE89507B600FCFDCF97BE46
:107F4000E89526C08437B1F42ED02DD0F82E2BD052
:107F50003CD0F601EF2C8F010F5F1F4F84911BD097
:107F6000EA94F801C1F70894C11CD11CFA94CF0C13
:107F7000D11C0EC0853739F428D08EE10CD085E9AC
:107F80000AD08FE07ACF813511F488E018D01DD067
:107F900080E101D065CF982F8091C00085FFFCCF94
:107FA0009093C60008958091C00087FFFCCF809118
:107FB000C00084FD01C0A8958091C6000895E0E648
:107FC000F0E098E1908380830895EDDF803219F02E
:107FD00088E0F5DFFFCF84E1DECF1F93182FE3DFCA
:107FE0001150E9F7F2DF1F91089580E0E8DFEE27F6
:047FF000FF270994CA
:027FFE00040479
:0400000300007E007B
:00000001FF
